:020000040000FA
:06000000B4EF00F0120055
:020006000000F8
:08000800060EF66E000EF76E05
:10001000000EF86E00010900F550656F0900F550FB
:10002000666F03E1656701D03DD00900F550606F50
:100030000900F550616F0900F550626F0900090071
:10004000F550E96E0900F550EA6E09000900090053
:10005000F550636F0900F550646F09000900F6CF91
:1000600067F0F7CF68F0F8CF69F060C0F6FF61C0C5
:10007000F7FF62C0F8FF0001635302E1645307E039
:100080000900F550EE6E6307F8E26407F9D767C020
:10009000F6FF68C0F7FF69C0F8FF00016507000EB2
:0600A000665BBFD71200F1
:0A00A600010E936E956A8380838635
:1000B000C80EE66E8DEC00F0E55283868390838453
:1000C000C80EE66E8DEC00F0E55283868394838241
:1000D000640EE66E8DEC00F0E55283928380640E30
:1000E000E66E8DEC00F0E55283808386C80EE66EE6
:1000F0008DEC00F0E55283808396838AC80EE66E0D
:100100008DEC00F0E5528380839A8388640EE66E5E
:0A0110008DEC00F0E5528398C9D78A
:06011A00FF0EE350036E2E
:10012000EF0E01D0F30EE76EE72E94EF00F00C0E09
:10013000026EE76AE72E9AEF00F0022E99EF00F0C8
:08014000032E92EF00F0120003
:08014800000EF36E00EE00F062
:10015000080E01D81200EA6002D0EE6AFCD7F35014
:08016000E9601200EE6AFCD711
:0801680013EE00F023EE00F09D
:10017000F86A019C04EC00F0C2EC00F053EC00F0D3
:04018000FBD7120097
:02018400120067
:020000040030CA
:0100000000FF
:010001000CF2
:010002000EEF
:010003001EDE
:010005008179
:010006008178
:00000001FF
