:020000040000FA
:06000000B7EF00F0120052
:020006001200E6
:08000800DACFE4FFE652B00E6E
:10001000CE6E3C0ECF6E9E900001602B000E6123D1
:100020000A0E60191AE1615118E1606B616B81A0E1
:100030000AD0622B000E63230A0E62190EE163518F
:100040000CE1626B09D06207000E635B621D05E183
:10005000631D03E1090E626F636BE552E5CFDAFFC2
:100060001100926A010E936E946A956A966ACD9E0B
:10007000CD9CCD8ACD98CD96CD94CD92CD80B00E2D
:10008000CE6E3C0ECF6E9E909D80F28EF28C640EF2
:1000900000016225E96E000E6321EA6EEF508C6E5E
:0200A000F6D791
:0E00A20001008A010000600000000E00000056
:1000B000A20EF66E000EF76E000EF86E000109003B
:1000C000F550736F0900F550746F03E1736701D049
:1000D0003DD00900F5506E6F0900F5506F6F0900B3
:1000E000F550706F09000900F550E96E0900F550F0
:1000F000EA6E090009000900F550716F0900F5501A
:10010000726F09000900F6CF75F0F7CF76F0F8CFDF
:1001100077F06EC0F6FF6FC0F7FF70C0F8FF000108
:10012000715302E1725307E00900F550EE6E71075A
:10013000F8E27207F9D775C0F6FF76C0F7FF77C00F
:0E014000F8FF00017307000E745BBFD71200BA
:02014E00000EA1
:10015000F36E00EE00F0080E01D81200EA6002D043
:0E016000EE6AFCD7F350E9601200EE6AFCD79D
:02016E0013EE8E
:1001700000F023EE00F0F86A019C58EC00F003EC6C
:0A01800000F031EC00F0FBD7120094
:06018A00000000003F062A
:080190005B4F666D7C077F6781
:020000040030CA
:010001000CF2
:010002000EEF
:010003001EDE
:010005008179
:010006008178
:00000001FF
